:100000000C9445030C946D030C946D030C94FC1D2F
:100010000C94FC1D0C94FC1D0C94C61C0C946D03DC
:100020000C946D030C946D030C946D030C946D0390
:100030000C946D030C946D030C946D030C946D0380
:100040000C947C1C0C946D030C944A1C0C94241C82
:100050000C946D030C946D030C946D030C946D0360
:100060000C94DD1C0C946D0300407A10F35A00A030
:10007000724E18090010A5D4E80000E87648170071
:1000800000E40B54020000CA9A3B000000E1F505B1
:10009000000080969800000040420F000000A086FB
:1000A00001000000102700000000E803000000002D
:1000B0006400000000000A000000000001000000D1
:1000C00000002C76D888DC674F0823DFC1DFAE59EB
:1000D000E1B1B796E5E3E453C63AE651997696E87E
:1000E000E6C28426EB898C9B62ED407C6FFCEFBC02
:1000F0009C9F40F2BAA56FA5F490055A2AF75C932D
:100100006B6CF9676DC11BFCE0E40D47FEF520E662
:10011000B500D0ED902E0300943577050080841E45
:10012000080000204E0A000000C80C333333330FA0
:10013000986E12831141EF8D2114893BE65516CF3D
:10014000FEE6DB18D1844B381BF77C1D901DA4BB49
:10015000E424203284725E228100C9F124ECA1E5FE
:100160003D275B4E42494F545D09002C2043757278
:1001700072656E743A200042657474657279205617
:100180006F6C6174653A20005B434D445D09005B10
:100190004932435D09005B504D555D090020004325
:1001A0006F6D6D616E64204552524F52004F4B008F
:1001B0004F4B2C004F4B2C004F4B2C204C6F77504B
:1001C0006F776572202D3E2000536C6565700020AE
:1001D000736563004F4B2C74696D6572202D3E2052
:1001E000004E6F20537472696E670053657420541B
:1001F000696D653E3E200052544354494D452C00E4
:1002000053657420446174653E3E2000525443445B
:100210004154452C0053657420536F756E643E3E07
:100220002000534F554E442C00536574206B506191
:100230003E3E20004B50612C00536574204C5558B5
:100240003E3E20004C55582C005365742048554DB7
:100250003E3E200048554D2C005365742054454DBA
:10026000503E3E200054454D502C005365742050A4
:100270004D3031303E3E2000504D3031302C005357
:10028000657420504D3130303E3E2000504D3130AD
:10029000302C0053657420504D3032353E3E2000E6
:1002A000504D3032352C00536574205241494E3E3A
:1002B0003E20005241494E2C005365742057443E65
:1002C0003E200057442C005365742057533E3E2077
:1002D0000057532C00436F6E74726F6C2053777409
:1002E00069636820546F20504D5500676574205332
:1002F0004C45455020636F6D6D616E6400534C45F5
:100300004550002C00436F6E74726F6C3A204F4E54
:100310000000000000240027002A00000000080060
:10032000020100000304070000000000000000209C
:100330007365632E0053657474696E6720536C6532
:1003400065702054696D653A200020562E00536573
:100350007474696E672057414B4520555020566F85
:100360006C6174653A2000506F7765722053617636
:1003700065204D6F64653A204F4E00536574746973
:100380006E6720494E413231392049324320616441
:1003900064726573733A203078005B5379737465C7
:1003A0006D5D20536574757020446F6E6500415417
:1003B0002B434950534855540041542B4349504313
:1003C0004C4F5345000D526573706F6E7365202D51
:1003D0003E200041542B4353510041542B4353546E
:1003E000543D2274776D2E6E62696F742200415401
:1003F0002B4342414E444346473D224E422D494FF6
:1004000054222C332C32380041542B435351004199
:10041000542B435354543D22696E7465726E657457
:100420002E696F74220041542B4342414E4443468F
:10043000473D224E422D494F54222C3800526573BD
:10044000706F6E7365202D3E2000222C22004154D7
:100450002B43495053544152543D22544350222C73
:10046000220041542B43494653520041542B4349E7
:100470004943520041542B434E4143543F004154A1
:100480002B434E4143543D310041542B434950537B
:10049000454E444845583D3100475053204F46464D
:1004A0000041542B43474E535057523D3000475064
:1004B00053204552524F52202D3E20004C6F6E6704
:1004C0006974756465202D3E20004C6174697475F3
:1004D0006465202D3E20004750532054696D6520EF
:1004E0002D3E20002B43474E53494E463A20312C97
:1004F000312C0041542B43474E53494E4600732044
:10050000666F722047505320736174656C6C697418
:100510006500475053204F4E2C2057616974696E17
:1005200067200041542B43474E535057523D3100F2
:10053000207365632E2E00506F776572204F4646FC
:100540002C2057616974696E672000526573706F63
:100550006E7365202D3E2000415400202D3E20006A
:10056000415420427566666572202D3E20526563B7
:1005700065203A20004F4B00207365632E2E0050FB
:100580006F776572204F6E2C2057616974696E67B2
:10059000200020493243202D2D3E20536C6176658A
:1005A00072004552524F523A20566F6C617465206A
:1005B0003C2057616B6520757020766F6C746167A5
:1005C0006520280057616B65722075702C20696E5C
:1005D0006974204932432077697468204D617374CF
:1005E000657220616E64206765742062657474654D
:1005F00072792073746174652E2E2E00456E7465B9
:100600007220534C454550204D6F6465004F66661F
:1006100020746865204C4544202620436F6E747218
:100620006F6C20504F574552005072657061726573
:1006300020534C454550204D6F646500436F6E74E8
:10064000726F6C3A204F46460000000000230026DF
:1006500000290000000000250028002B00040404ED
:10066000040404040402020202020203030303035B
:100670000301020408102040800102040810200138
:10068000020408102000F71E741E11241FBECFEFB5
:10069000D8E0DEBFCDBF13E0A0E0B1E0ECEFF2E6C2
:1006A00002C005900D92AE36B107D9F726E0AEE64E
:1006B000B3E001C01D92AF34B207E1F713E0C4E428
:1006C000D3E004C02197FE010E942B2FC334D10731
:1006D000C9F70E9476200C9471310C940000E091CF
:1006E0007504F0917604309729F01092D604109298
:1006F000D50409940895CF93DF93EC01E09177043A
:10070000F09178043097F1F09091D8048091D7045B
:100710009817C0F090E0292F30E02617370754F4DF
:10072000DE01A20FB31F4C912E5F3B4FD9014C93BA
:100730009F5FF1CF1092D8046093D704CB01DF9173
:10074000CF910994DF91CF91089508950895DB0129
:1007500014964D915C9115976D917C91DC01ED9112
:10076000FC910280F381E02D0994CF93DF93EC019B
:10077000BC0189ED94E00E94A703BE0180EC95E0E6
:10078000DF91CF910C94A703EF92FF920F931F93E9
:10079000CF93DF938C017B01D0E0C0E0F701EC0F39
:1007A000FD1F6491662361F0D801ED91FC910190E9
:1007B000F081E02DC8010995892B11F02196EECF2B
:1007C000CE01DF91CF911F910F91FF90EF9008958F
:1007D000AF92BF92CF92DF92EF92FF920F931F934F
:1007E000CF93DF936C017B018B01040F151FEB018D
:1007F0005E01AE18BF08C017D10759F06991D60144
:10080000ED91FC910190F081E02DC6010995892BB5
:1008100079F7C501DF91CF911F910F91FF90EF9074
:10082000DF90CF90BF90AF900895FC01538D448D21
:10083000252F30E0842F90E0821B930B541710F08B
:10084000CF96089501970895FC01918D828D981798
:1008500061F0A28DAE0FBF2FB11D5D968C91928D70
:100860009F5F9F73928F90E008958FEF9FEF0895A1
:10087000FC01918D828D981731F0828DE80FF11D6A
:10088000858D90E008958FEF9FEF0895FC01918D85
:10089000228D892F90E0805C9F4F821B91098F737E
:1008A0009927089589ED94E00E94460421E0892B60
:1008B00009F420E0822F089580E090E0892B29F050
:1008C0000E94520481110C9400000895FC01A48D33
:1008D000A80FB92FB11DA35ABF4F2C91848D90E062
:1008E00001968F739927848FA689B7892C93A08945
:1008F000B1898C91837080648C93938D848D9813CF
:1009000006C00288F389E02D80818F7D8083089561
:10091000EF92FF920F931F93CF93DF93EC0181E04F
:10092000888F9B8D8C8D98131AC0E889F9898081F6
:1009300085FF15C09FB7F894EE89FF896083E88929
:10094000F98980818370806480839FBF81E090E01B
:10095000DF91CF911F910F91FF90EF900895F62EA8
:100960000B8D10E00F5F1F4F0F731127E02E8C8D42
:100970008E110CC00FB607FCFACFE889F989808187
:1009800085FFF5CFCE010E946604F1CFEB8DEC0F11
:10099000FD2FF11DE35AFF4FF0829FB7F8940B8FA4
:1009A000EA89FB8980818062CFCFCF93DF93EC010E
:1009B000888D8823B9F0AA89BB89E889F9898C9147
:1009C00085FD03C0808186FD0DC00FB607FCF7CF03
:1009D0008C9185FFF2CF808185FFEDCFCE010E9403
:1009E0006604E9CFDF91CF91089590E0FC01E55EC8
:1009F000FC4F2491FC01EF58F94F3491FC01E35A6C
:100A0000F94FE491EE23C9F0222339F0233001F1AC
:100A1000A8F4213019F1223029F1F0E0EE0FFF1F88
:100A2000ED5AF94FA591B4918FB7F894EC916111FB
:100A300026C030953E233C938FBF08952730A9F000
:100A40002830C9F0243049F7809180008F7D03C0A1
:100A5000809180008F7780938000DFCF84B58F777F
:100A600084BDDBCF84B58F7DFBCF8091B0008F77C5
:100A70008093B000D2CF8091B0008F7DF9CF3E2B14
:100A8000DACFCF93DF9390E0FC01EF58F94F249138
:100A9000835A994FFC0184918823D1F090E0880F0C
:100AA000991FFC01EF5EFC4FA591B491FC01ED5A3A
:100AB000F94FC591D49161110EC09FB7F8948C91F4
:100AC000E22FE0958E238C932881E223E8839FBF59
:100AD000DF91CF9108958FB7F894EC91E22BEC93CE
:100AE0008FBFF6CF8330910528F0880F991F0497A8
:100AF0000197F1F708953FB7F89480916B049091B6
:100B00006C04A0916D04B0916E0426B5A89B05C03D
:100B10002F3F19F00196A11DB11D3FBFBA2FA92F7C
:100B2000982F8827BC01CD01620F711D811D911D79
:100B300043E0660F771F881F991F4A95D1F70895E4
:100B40008F929F92AF92BF92CF92DF92EF92FF92DD
:100B50006B017C010E947B054B015C01C114D10437
:100B6000E104F104B9F00E947B05681979098A094A
:100B70009B09683E73408105910580F321E0C21A0C
:100B8000D108E108F10888EE880E83E0981EA11CC8
:100B9000B11CE4CFFF90EF90DF90CF90BF90AF906B
:100BA0009F908F900895CF92DF92EF92FF92CF9314
:100BB000DF936C0161E08DE00E9441051092820498
:100BC00010928104F12CE12CC1E0D0E080918104ED
:100BD00090918204892BB9F461E08DE00E94F504C4
:100BE000C701B6010E94A00560E08DE00E94F504F7
:100BF0006CE271E080E090E00E94A005D093820456
:100C0000C0938104E3CFDF91CF91FF90EF90DF900D
:100C1000CF9008954115510529F4EAE7F0E080816D
:100C20008F7780836A307105B9F0CB01880F991FE7
:100C3000880F991F807267706860682B88E10FB613
:100C4000F894A895809360000FBE60936000E0E682
:100C5000F0E0808180648083232BD9F483B7817F87
:100C6000846083BFF89483B7816083BF85B7806653
:100C700085BF8F7D85BF7894889583B78E7F83BF2E
:100C80007894452B29F4EAE7F0E08081806880833E
:100C9000089583B7817F846083BFF89483B78160B0
:100CA00083BF7894889583B78E7F83BF7894E9CF8C
:100CB00020914304260F3327331F21323105ECF4F2
:100CC0002091A904FC0190E080E0243069F082E0EA
:100CD0000895A09143042191AC014D5D5B4FA40F99
:100CE000B52FB11D2C930196861798F3809143047C
:100CF000680F6093430480E0089581E00895ECEB71
:100D0000F0E080818A7B808360E082E10E94F504CC
:100D100060E083E10C94F5041092A90481E08093D3
:100D2000A8041092830461E082E10E94F50461E06E
:100D300083E10E94F504E9EBF0E080818E7F8083FF
:100D400080818D7F808380E28093B80085E48093EA
:100D5000BC0008951092D8041092D7041092D604C3
:100D60001092D5040E948C068FE693E09093D404F1
:100D70008093D3048BE793E09093D2048093D104C3
:100D80000895CF93DF9391E090932204882361F03C
:100D9000C091B800D091BA000E947F060E948C06D4
:100DA000D093BA00C093B800DF91CF9108958F928D
:100DB0009F92AF92BF92CF92DF92EF92FF920F93EA
:100DC0001F93CF93DF93D091D504D13208F0D7C0D1
:100DD000182FC091D0040E947B056B017C0180918B
:100DE000A90481116BC082E08093A9041093A80428
:100DF0008FEF8093A7041092A604D093A504A0EBD4
:100E0000B4E0E5E8F4E080E0D81391C010928404E7
:100E100080918404CC0FC82BC093840480918304F8
:100E2000813009F088C0109283040E947B056B0119
:100E30007C01809184048093BB008091AB049091ED
:100E4000AC04A091AD04B091AE04892B8A2B8B2BFE
:100E5000A1F00E947B050091AB041091AC0420919D
:100E6000AD043091AE046C197D098E099F090617F7
:100E700017072807390708F442C08091BC0083FD9A
:100E8000D8CF85EC8093BC000E947B056B017C0170
:100E90008091A904823009F450C08091A7048F3F4B
:100EA00009F46FC08091A704803209F46CC080916E
:100EB000A704803309F469C084E026C08091AB04A4
:100EC0009091AC04A091AD04B091AE04892B8A2B13
:100ED0008B2B09F484CF0E947B058090AB0490900B
:100EE000AC04A090AD04B090AE046C197D098E09DD
:100EF0009F0986169706A806B90608F070CF80915C
:100F0000AA040E94C10685E01092D6041092D5046E
:100F10001092AF04DF91CF911F910F91FF90EF904E
:100F2000DF90CF90BF90AF909F908F9008959D914C
:100F300091938F5F69CF85EEA5CF8091AB0490919F
:100F4000AC04A091AD04B091AE04892B8A2B8B2BFD
:100F500009F49ECF0E947B050091AB041091AC0474
:100F60002091AD043091AE046C197D098E099F0962
:100F7000061717072807390708F08ACFC0CF81E086
:100F8000C3CF80E0C1CF82E0BFCF83E0BDCFE0918F
:100F9000D8048091D704E81730F4F0E0EE5FFB4FFF
:100FA000808190E008958FEF9FEF08959091D8048D
:100FB0008091D7042FEF3FEF981748F4E92FF0E026
:100FC000EE5FFB4F208130E09F5F9093D804C90112
:100FD00008958091D7049091D804891B990B0895A6
:100FE000CF92DF92EF92FF920F931F93CF93DF93F5
:100FF0007C01CB018A012091AF04222389F0EB010F
:101000006B01C40ED51ECC15DD0569F06991D701C1
:10101000ED91FC910190F081E02DC7010995F3CF8E
:10102000642F0E945806C801DF91CF911F910F9144
:10103000FF90EF90DF90CF900895CF93DF931F92B2
:10104000CDB7DEB769832091AF042223F9F0209158
:10105000D504203258F021E030E0FC0133832283B4
:1010600090E080E00F90DF91CF9108958091D604B9
:10107000E82FF0E0E055FB4F998190838F5F8093DC
:10108000D6048093D50481E090E0ECCF61E0CE01FE
:1010900001960E945806F7CF8FB7F894809101040B
:1010A0008FBF0895FC0183858F3F11F00C94F504E8
:1010B0000895AF92BF92CF92DF92EF92FF920F937B
:1010C0001F93CF93DF93EC0188819981892B89F05D
:1010D0006EBD0DB407FEFDCFBEB48B2DDF91CF9159
:1010E0001F910F91FF90EF90DF90CF90BF90AF9046
:1010F00008958885998511E0892B09F010E8AA24C4
:10110000A394862F812309F0A12C062F2C813D81E9
:101110004E815F8160E271EA87E090E00E94682E74
:10112000F22EB02EE12CC22ED12CFF2019F0C601D8
:101130000E9472058A85877F09F042C08D858F3FA6
:1011400089F0902F912381E009F480E08A1551F015
:10115000EF85F8898F89992369F19081892B8083A4
:10116000AA24A394E989FA898081998D892B8083A7
:10117000FF2019F0C6010E9472058E858F3F39F05D
:10118000EB89FC898081988D892309F0E12AE9891E
:10119000FA899081898D8095892380838E858F3F00
:1011A00009F0BE2C88859985892BB9F5110F11118D
:1011B000BCCF93CF9081809589238083A12CD2CFFF
:1011C000E989FA898081998D892B8083FF2019F024
:1011D000C6010E9472058D858F3F49F0EF85F88921
:1011E0008F89902F9123A9F09081892B8083E989A1
:1011F000FA899081898D8095892380838E858F3FA0
:1012000069F2EB89FC898081988D892339F2E12A82
:10121000C5CF908180958923E9CF1695C8CF8CBD25
:101220009DBD08958F929F92AF92BF92CF92DF9211
:10123000EF92FF920F931F93CF93DF93EC014B013B
:101240006A01B22EA32E88819981892B31F0EA811F
:10125000FB81808191810E940F0970E060E0CE01E6
:101260000E9452087401C80CD91CEC14FD0479F4D6
:10127000EB2CFA2C0E0D1F1DE016F10679F06FEF26
:10128000CE010E945908F70181937F01F5CFF70144
:1012900061917F01CE010E945908E7CF61E070E0C3
:1012A000CE010E94520881E0DF91CF911F910F91F2
:1012B000FF90EF90DF90CF90BF90AF909F908F9076
:1012C00008958F929F92AF92BF92CF92DF92EF924A
:1012D000FF920F931F93CF93DF93EC01B62EA72EAF
:1012E0006A01490188819981892B31F0EA81FB816A
:1012F000808191810E940F0970E060E0CE010E9420
:1013000052087401080D191DE016F10671F40B2D39
:101310001A2DC00ED11E0C151D0571F0F80161913A
:101320008F01CE010E945908F6CFF70161917F012C
:10133000CE010E945908E8CF61E070E0CE010E9422
:10134000520881E0DF91CF911F910F91FF90EF90B4
:10135000DF90CF90BF90AF909F908F9008951F9394
:10136000CF93DF93EA01122FDC0111968D919C91AE
:10137000DC01ED91FC910280F381E02D0995C81705
:10138000D90729F4812F0E94D70691E0811190E0BE
:10139000892FDF91CF911F910895CF92DF92EF9225
:1013A000FF920F931F93CF93DF9300D0CDB7DEB79B
:1013B000FC014787508B618B728B8285882371F18A
:1013C0004487452F562F672F7727882349F1438776
:1013D0007F018BE0E80EF11C9681878199838A83D7
:1013E000C080D180C114D10409F443C0018510E04C
:1013F00098012E5F3F4FD60114968D919C918217D4
:10140000930780F480E00F900F90DF91CF911F91B0
:101410000F91FF90EF90DF90CF9008954387D1CF49
:101420004487D6CFF60181819281208131E03093CB
:10143000AF042093D0041092D6041092D504011565
:10144000110541F421E042E050E0B701C6010E94DD
:10145000AF09D9CFDC01ED91FC910280F381E02D41
:10146000A801BE016F5F7F4F09950817190751F654
:10147000E9CFA281B381109729F2248135810185BA
:1014800010E02330310579F48E7F89839A830F5FD2
:101490001F4F9E012F5F3F4F42E050E0B701CD014B
:1014A0000E946109B0CF2115310519F49F77998306
:1014B000F0CF2230310511F49068F9CF2130310599
:1014C00041F79F779064F3CFCF93DF93EC018B814B
:1014D0008823A1F0888191E09093AF048093D00499
:1014E0001092D6041092D50481E00E94D70691E0B4
:1014F000811190E0892FDF91CF9108950E94AA0673
:1015000081E08B83CE010E94640A982F8111E2CF83
:10151000F1CF2091B2053091B3052817390771F446
:1015200090916F0480917004981741F0E0916F04DE
:10153000F0E0E558FC4F808190E008958FEF9FEF39
:101540000895EF92FF920F931F93CF93DF93DC01E7
:101550005C96ED90FC905D97E114F10479F481E0E4
:1015600090E013969C938E93129790E080E0DF9129
:10157000CF911F910F91FF90EF9008955196ED91AB
:10158000FC91529750968C915097982F90950FB749
:101590005E962C915E97122F127021FD6095F89443
:1015A0002081112319F1282B2083E7012197F1F7DE
:1015B00028E0462F50E0308160FF1AC0382B30837E
:1015C000E7012197F1F7BA0175956795215089F7E1
:1015D000112381F08081892380830FBF5C968D91D8
:1015E0009C910197F1F781E090E0C1CF2923DCCFF6
:1015F0003923E5CF9081892BEFCF2091B20530912F
:10160000B3052817390771F48091700420916F0495
:1016100090E080589F4F821B910960E870E00E9423
:10162000172F089590E080E008952091B205309141
:10163000B30528173907B9F490916F0480917004AD
:10164000981789F0E0916F04F0E0E558FC4F808135
:1016500020916F0430E02F5F3F4F2F773327209387
:101660006F0490E008958FEF9FEF089590E080E081
:1016700008952F923F924F925F926F927F928F9236
:101680009F92AF92BF92CF92DF92EF92FF920F9311
:101690001F93CF93DF9300D000D000D0CDB7DEB73B
:1016A0007C017C836B830B969E838D83D70116967A
:1016B0009C91169717968C91179799838A836D90B2
:1016C0007C9011976114710409F44CC119964C91E6
:1016D00050E0F3018481958184179507A8F08081FB
:1016E00091E09093AF048093D0041092D6041092AE
:1016F000D50420E0BE016F5F7F4FC3010E94AF0998
:10170000D12CC12C81111AC080E026960FB6F89416
:10171000DEBF0FBECDBFDF91CF911F910F91FF9024
:10172000EF90DF90CF90BF90AF909F908F907F9081
:101730006F905F904F903F902F900895D301149633
:101740008D919C9102E010E00C191D098017910702
:1017500008F48C01F30150800E947B054B015C0171
:101760008091A904811176C0B02EF0E2F01710F438
:1017700040E2B42E81E08093A90421E082E090E071
:10178000801B910BC816D90608F420E02093A8040A
:101790009FEF9093A7041092A6048FEF8B0D809378
:1017A000A504A1E0A093840480918404550C582AD8
:1017B0005092840480918304813009F093C0109288
:1017C00083040E947B051B012C018091840480937B
:1017D000BB008091AB049091AC04A091AD04B0919A
:1017E000AE04892B8A2B8B2BA1F00E947B052091C4
:1017F000AB043091AC044091AD045091AE04621939
:10180000730984099509261737074807590708F40B
:1018100042C08091BC0083FDD8CFB5ECB093BC0032
:101820000E947B051B012C018091A904813009F4E1
:101830005DC08091A6048B1510F4B090A604A5E8B5
:10184000B4E0E2E0F4E080E08B1551F19D919193DA
:101850008F5FFACF8091AB049091AC04A091AD045E
:10186000B091AE04892B8A2B8B2B09F479CF0E947F
:101870007B052091AB043091AC044091AD045091B4
:10188000AE04681979098A099B09261737074807A2
:10189000590708F065CF8091AA040E94C106B12CB7
:1018A0001092D804B092D704B016110609F02CCFCC
:1018B0008D809E808C0C9D1C5401C501881999094E
:1018C00080179107A8F5D30111968D919C91DC01A9
:1018D000ED91FC910284F385E02D0995F50181934A
:1018E0005F01EBCFE5EEE093BC009ACF8091AB04B3
:1018F0009091AC04A091AD04B091AE04892B8A2BD9
:101900008B2B09F491CF0E947B052091AB04309181
:10191000AC044091AD045091AE046219730984097E
:101920009509261737074807590708F07DCFB3CF29
:10193000C00ED11EF2E0CF16D10408F4FFCEF7019D
:101940008285811142C0848590E0982F8827AB81E1
:10195000BC8111969C938E932385822B8D939C93AF
:1019600081E0D3CE1296ED91FC911397309709F454
:10197000CBCE14962D913C91159719964C9150E031
:101980002330310591F4816089839A834F5F5F4FE3
:1019900002E010E02D813E81BE016F5F7F4FCF01DD
:1019A0000E9412098111CBCFB0CE2115310519F457
:1019B00090689983EDCF2230310511F49F77F9CFEC
:1019C0002130310529F7906CF4CF838590E0982F72
:1019D0008827AB81BC8111969C938E932485BDCFC3
:1019E000FB0101900020E9F73197AF01461B570B2F
:1019F000DC01ED91FC910280F381E02D099463E319
:101A000072E00C94F00C0F931F93CF93DF93EC01D3
:101A10000E94A7038C01CE010E94FF0C800F911F32
:101A2000DF91CF911F910F9108950F931F93CF9343
:101A3000DF9320917204222349F18A01EC01633083
:101A40007105C1F064307105C1F06230710531F487
:101A500066E971E089ED94E00E94C403BE0189ED5E
:101A600094E00130110561F0DF91CF911F910F914A
:101A70000C94A7036FE871E0EDCF68E871E0EACF5E
:101A8000DF91CF911F910F910C94030DDF91CF91B6
:101A90001F910F9108950F931F93CF93DF93209180
:101AA00071042223E9F08A01EC016230710531F4FE
:101AB00062E671E089ED94E00E94C403BE0189ED05
:101AC00094E00130110531F0DF91CF911F910F911A
:101AD0000C94A703DF91CF911F910F910C94030DEC
:101AE000DF91CF911F910F9108958F929F92AF92A6
:101AF000BF92EF92FF920F931F93CF93DF93CDB7D7
:101B0000DEB7A1970FB6F894DEBF0FBECDBF7C0144
:101B1000FA01CB0119A2223008F42AE08E010F5DF0
:101B20001F4F822E912CB12CA12CBF01A501940135
:101B30000E94682EF901CA016A300CF5605DD80177
:101B40006E938D01232B242B252B79F790E080E0D9
:101B5000109721F0BD01C7010E94F00CA1960FB6AD
:101B6000F894DEBF0FBECDBFDF91CF911F910F91D3
:101B7000FF90EF90BF90AF909F908F900895695C19
:101B8000DECF0F931F93CF93DF93EC010E94F00CF5
:101B90008C01CE010E94FF0C800F911FDF91CF912D
:101BA0001F910F910895CF93DF93FC01C081D181E4
:101BB000209761F08991882349F0082E000C990B39
:101BC0000E942731FE0131978083F4CFDF91CF91BE
:101BD0000895CF93DF93FC01248135814217530789
:101BE00088F4C081D181FB0160817181CE01840FB5
:101BF000951F0E945731009729F08C1B9D0BDF9198
:101C0000CF9108958FEF9FEFFACF50E040E00C9412
:101C1000E90D0F931F93CF93DF938C01EB01FC0130
:101C2000808191810097E1F068817981611571056A
:101C3000A9F0428153812C813D814217530770F0F6
:101C40000E9441318C819D81F801958384831D829E
:101C50001C82DF91CF911F910F9108950E94E12F77
:101C600088819981F801918380838A819B81938304
:101C700082838C819D8195838483198218821B8243
:101C80001A82E5CFCF93DF93EC0188819981009789
:101C900011F00E94E12F198218821D821C821B8282
:101CA0001A82DF91CF910895FC0180819181009784
:101CB00011F00C94E12F08950F931F93CF93DF93AE
:101CC000EC0188819981009759F02A813B81261780
:101CD000370730F081E0DF91CF911F910F91089588
:101CE0008B016F5F7F4F0E946A30009759F0998394
:101CF00088831B830A832C813D81232B59F7FC01A8
:101D00001082E8CF80E0E7CF0F931F93CF93DF934C
:101D10008C010E945B2A0097F1F0C0913D06D091A2
:101D20003E06C80FD91FBE0189E396E00E945C0EF3
:101D3000882391F02091390630913A0680913D0632
:101D400090913E06B801820F931F0E94542AD093AF
:101D50003E06C0933D0681E0DF91CF911F910F9128
:101D60000895EF92FF920F931F93CF93DF93611526
:101D7000710541F480E0DF91CF911F910F91FF90A9
:101D8000EF90089541155105B1F07B01EC010C81F4
:101D90001D81040F151FB8010E945C0E882351F3AA
:101DA000288139818C819D81B701820F931F0E9408
:101DB00041311D830C8381E0DECFFB0144815581DD
:101DC000608171810C94B10EEF92FF920F931F937B
:101DD000CF93DF93EC018B01CB010E945B2A7C0146
:101DE000BC01CE010E945C0E81110BC0CE010E948D
:101DF000420ECE01DF91CF911F910F91FF90EF9096
:101E00000895FD82EC82B801888199810E94542A4C
:101E1000F0CFFC011182108213821282158214828B
:101E20000C94E40ECF93DF9300D000D000D0CDB758
:101E3000DEB760E08091D6010E94F5046CE376E0A5
:101E4000CE0101960E94090F41E050E062E070E08F
:101E5000CE0101960E94150DCE0101960E94540EEE
:101E600026960FB6F894DEBF0FBECDBFDF91CF919F
:101E700008950F931F93CF93DF9300D000D000D02D
:101E8000CDB7DEB78C0110929E0565E775E0CE01F7
:101E900001960E94090FBE016F5F7F4FC8010E942B
:101EA000050E8C01CE0101960E94540E10161106EB
:101EB0001CF481E080939E0580919E0526960FB6C6
:101EC000F894DEBF0FBECDBFDF91CF911F910F9170
:101ED0000895CF93DF9300D000D000D0CDB7DEB708
:101EE00061E08091D6010E94F50465E073E0CE01C7
:101EF00001960E94090F41E050E062E070E0CE01DF
:101F000001960E94150DCE0101960E94540E269650
:101F10000FB6F894DEBF0FBECDBFDF91CF9108950D
:101F2000EF92FF920F931F93CF93DF93EC017B010E
:101F30008A01BA010E945C0E81110BC0CE010E9481
:101F4000420ECE01DF91CF911F910F91FF90EF9044
:101F500008951D830C83B701888199810E944131C6
:101F6000F0CFFB0101900020E9F73197AF01461B4C
:101F7000570B0C94900FEF92FF920F931F93CF93F8
:101F8000DF93CDB7DEB7A1970FB6F894DEBF0FBED3
:101F9000CDBF7C01CB01BA01F701118210821382FF
:101FA0001282158214828E010F5F1F4F22E044E0DF
:101FB0000E949229009789F0BC01C7010E94B10FCD
:101FC000A1960FB6F894DEBF0FBECDBFDF91CF91C3
:101FD0001F910F91FF90EF900895C7010E94420E4C
:101FE000EFCF0F931F93CF93DF93CDB7DEB76197FA
:101FF0000FB6F894DEBF0FBECDBF8C01CB01F80148
:102000001182108213821282158214824AE0BE016C
:102010006F5F7F4F0E947A2ABE016F5F7F4FC801BA
:102020000E94B10F61960FB6F894DEBF0FBECDBF10
:10203000DF91CF911F910F9108950F931F93CF932D
:10204000DF9300D000D000D0CDB7DEB702E815E0B6
:1020500061E0F801808D0E94F5048EE190E0F801C6
:1020600093A382A36FE775E0CE0101960E94090F4A
:1020700050E040E062E070E0CE0101960E944B0D1E
:10208000CE0101960E94540EF80162A173A1CE0107
:1020900001960E94F10F50E040E070E060E0CE0158
:1020A00001960E944B0DCE0101960E94540E68E7E6
:1020B00075E0CE0101960E94090F41E050E070E00A
:1020C00060E0CE0101960E944B0DCE0101960E9468
:1020D000540EF80122A133A188EE93E0289FB001AD
:1020E000299F700D389F700D112490E080E00E94B0
:1020F000A00526960FB6F894DEBF0FBECDBFDF91C8
:10210000CF911F910F9108950F931F93CF93DF935A
:1021100000D000D000D0CDB7DEB702E815E081E0F6
:1021200090E0F80193A382A360E0808D0E94F50403
:1021300067E375E0CE0101960E94090F50E040E090
:1021400062E070E0CE0101960E944B0DCE01019637
:102150000E94540EF80162A173A1CE0101960E9463
:10216000F10F50E040E070E060E0CE0101960E9487
:102170004B0DCE0101960E94540E60E375E0CE0136
:1021800001960E94090F41E050E070E060E0CE014E
:1021900001960E944B0DCE0101960E94540EF8014B
:1021A00022A133A188EE93E0289FB001299F700DF2
:1021B000389F700D112490E080E00E94A0052696C3
:1021C0000FB6F894DEBF0FBECDBFDF91CF911F9148
:1021D0000F9108950F931F93CF93DF93CDB7DEB781
:1021E00029970FB6F894DEBF0FBECDBF8C01862FA6
:1021F000F80111821082138212821582148250E03B
:10220000BE016F5F7F4F90E00E946F2ABE016F5F3B
:102210007F4FC8010E94B10F29960FB6F894DEBF18
:102220000FBECDBFDF91CF911F910F910895CF9336
:10223000DF93EC01FB018617970749F060817181FC
:102240006115710541F0448155810E94900FCE01C6
:10225000DF91CF9108950E94420EF9CFFC011182C7
:10226000108213821282158214820C9417110F931C
:102270001F93CF93DF93CDB7DEB768970FB6F8946F
:10228000DEBF0FBECDBF8C0165E372E084EB95E04D
:102290000E94B10F68EE73E080E090E00E94A0051C
:1022A00060E675E0CE0101960E94090F50E040E023
:1022B00062E070E0CE0101960E944B0DCE010196C6
:1022C0000E94540E80EC95E00E94FD0A1C8A1B8A35
:1022D0001E8A1D8A188E1F8A4AE0BE016F5F7F4FDB
:1022E0000E94642ABE016F5F7F4FCE0143960E9419
:1022F000B10F50E040E070E060E0CE0143960E94F4
:102300004B0DCE0143960E94540E80EC95E00E9446
:10231000FD0A892BE9F080EC95E00E94150B1A82EA
:1023200019821C821B821E821D828B8B1C8ABE011D
:102330006D5E7F4FCE0101960E94B10FBE016F5FAF
:102340007F4F84EB95E00E94DD0ECE010196DBCF3E
:102350006BE575E0CE0101960E94090F50E040E068
:1023600070E060E0CE0101960E944B0DCE01019617
:102370000E94540E6091B8057091B905CE01019686
:102380000E94F10F41E050E070E060E0CE01019664
:102390000E944B0DCE0101960E94540E64EB75E035
:1023A000C8010E942E11C80168960FB6F894DEBFCE
:1023B0000FBECDBFDF91CF911F910F9108950F9365
:1023C0001F93CF93DF9300D000D000D0CDB7DEB7FE
:1023D00002E815E0F801148E68E575E0CE0101967B
:1023E0000E94090FBE016F5F7F4F80EC95E00E9455
:1023F000030DCE0101960E94540E64EF71E080E05F
:1024000090E00E94A005CE0101960E943711BE0106
:102410006F5F7F4F84EB95E00E94090ECE0101961D
:102420000E94540E64EB75E0CE0101960E942E11BD
:10243000CE0101960E94390FF801848FCE010196DA
:102440000E94540EF801848D26960FB6F894DEBFD4
:102450000FBECDBFDF91CF911F910F9108951F93B4
:10246000CF93DF9300D000D000D0CDB7DEB7162FCA
:10247000BC01CE0101960E942E11BE016F5F7F4FFD
:1024800080EC95E00E94030DCE0101960E94540E4F
:1024900068EE73E080E090E00E94A005CE01019616
:1024A0000E943711BE016F5F7F4F84EB95E00E9461
:1024B000090ECE0101960E94540E112321F16BE406
:1024C00075E0CE0101960E94090F50E040E062E005
:1024D00070E0CE0101960E944B0DCE0101960E9444
:1024E000540E64EB75E0CE0101960E942E1141E07E
:1024F00050E070E060E0CE0101960E944B0DCE01ED
:1025000001960E94540E64EB75E0CE0101960E9484
:102510002E11CE0101960E94390F80939E05CE01A7
:1025200001960E94540E80919E0526960FB6F8944F
:10253000DEBF0FBECDBFDF91CF911F910895FC018B
:10254000118210821382128215821482FB01019083
:102550000020E9F73197AF01461B570B0C94900F01
:10256000FF920F931F93CF93DF9300D000D000D042
:10257000CDB7DEB78C01F62E65E372E00E949F12A4
:102580008FE08F1528F066E372E0C8010E94B10F5A
:1025900040E16F2DCE0101960E94EA10BE016F5FEF
:1025A0007F4FC8010E94DD0ECE0101960E94540E9D
:1025B000C8010E94D30DC80126960FB6F894DEBF5D
:1025C0000FBECDBFDF91CF911F910F91FF90089566
:1025D0000F931F93CF93DF9300D000D000D0CDB7DF
:1025E000DEB7E091FF03F0910004E830F10508F058
:1025F00090C0E350FD4E0C942B2F051389130C1340
:1026000048134B1364137713861361EE71E089E36B
:1026100096E00E94E40E1DC064ED71E089E396E04F
:102620000E94E40E60917F0470918004CE010196B7
:102630000E94F10FBE016F5F7F4F89E396E00E9419
:10264000DD0ECE0101960E94540E8FEC91E00E94A7
:10265000840E00913D0610913E0610928204109265
:1026600081048091810490918204800F911F4E9784
:1026700008F052C08DE991E00E94840E809181049F
:102680009091820401969093820480938104E9CF13
:1026900069EC71E0BCCF68EB71E089E396E00E94E1
:1026A000E40E4AE060917E04CE0101960E94EA1099
:1026B000BE016F5F7F4F89E396E00E94DD0ECE0181
:1026C00001960E94540EC5CF64EB71E089E396E059
:1026D0000E94E40E4091790450917A0460917B0449
:1026E00070917C04CE0101960E94BB0FE1CF60EB9C
:1026F00071E089E396E00E94E40E4091FB03509163
:10270000FC036091FD037091FE03ECCF6DEA71E074
:102710007ECF6FE971E07BCF69E376E0CE01019671
:102720000E942E1141E050E063E070E0CE0101967E
:102730000E94150DCE0101960E94540E65E372E0D1
:10274000CE0101960E949F1241E050E070E060E0EF
:10275000CE0101960E94150DCE0101960E94540EE5
:102760006091390670913A066115710521F086E78E
:1027700095E00E94F00C26960FB6F894DEBF0FBECF
:10278000CDBFDF91CF911F910F910895AF92BF926E
:10279000CF92DF92EF92FF920F931F93CF93DF932D
:1027A0006C015B017A0189012417350720F48F2D14
:1027B0007901042F182F65E372E0C6010E949F1271
:1027C000D5011496CD91DC91EC16FD06E0F40C17C2
:1027D0001D0708F4E801D501ED91FC911197EC0F6C
:1027E000FD1F108110826D917C916E0D7F1DC601C1
:1027F00061157105A1F00E94B10FF50180819181F1
:10280000C80FD91F1883C601DF91CF911F910F9177
:10281000FF90EF90DF90CF90BF90AF9008950E940F
:10282000420EEBCFCF92DF92EF92FF920F931F9366
:10283000CF93DF936C01EB017A01022F1092A10577
:102840001092A00550E040E0B701CE010E94E90DD2
:102850009093A3058093A20510929F0510919F0568
:102860002091A2053091A3051017C0F4A901B7016A
:10287000CE010E94E90D9093A1058093A005AC01C3
:102880004F5F5F4FB701CE010E94E90D9093A30502
:102890008093A2051F5F10939F05E0CF4091A00594
:1028A0005091A1054F5F5F4FBE01C6010E94C61344
:1028B000C601DF91CF911F910F91FF90EF90DF90B4
:1028C000CF900895EF92FF920F931F93CF93DF93D2
:1028D000CDB7DEB72C970FB6F894DEBF0FBECDBFD5
:1028E0008C010E94D30D63E073E0CE0101960E943B
:1028F000090FBE016F5F7F4FC8010E94050EF801EE
:1029000024813581AC014F5F5F4FB801CE0107963E
:102910000E94C613BE01695F7F4F8FE396E00E945D
:10292000090ECE0107960E94540ECE0101960E9418
:10293000540EF80184819581892B09F46FC381E0DD
:1029400090E0909300048093FF036DEF72E0CE015E
:1029500001960E94090FBE016F5F7F4FC8010E9460
:10296000050E7C01CE0101960E94540EF7FC30C08A
:102970006BEE72E0CE0101960E94090F41E050E03B
:1029800064E070E0CE0101960E94150DCE01019623
:102990000E94540E65ED72E0CE0101960E94090F6F
:1029A00041E050E064E070E0CE0101960E94150D18
:1029B000CE0101960E94540E81E090E09093D501E3
:1029C0008093D40183E090E0909300048093FF0310
:1029D00061ED72E0CE0101960E94090FBE016F5FAA
:1029E0007F4FC8010E94050E7C01CE0101960E9416
:1029F000540EF7FC2AC067EC72E0CE0101960E94EB
:102A0000090F50E040E064E070E0CE0101960E94C2
:102A1000150DCE0101960E94540E6FE376E0CE01B3
:102A200001960E942E1141E050E070E060E0CE017E
:102A300001960E94150DCE0101960E94540E6FE37F
:102A400076E087E296E00E94171163EC72E0CE0117
:102A500001960E94090FBE016F5F7F4FC8010E945F
:102A6000050E7C01CE0101960E94540EF7FC2AC08F
:102A700069EB72E0CE0101960E94090F50E040E040
:102A800064E070E0CE0101960E94150DCE01019622
:102A90000E94540E6FE376E0CE0101960E942E1143
:102AA00041E050E070E060E0CE0101960E94150D1B
:102AB000CE0101960E94540E6FE376E081E296E02B
:102AC0000E94171163EB72E0CE0101960E94090F7C
:102AD000BE016F5F7F4FC8010E94050E7C01CE01D1
:102AE00001960E94540EF7FC2AC067EA72E0CE01FC
:102AF00001960E94090F50E040E064E070E0CE01D2
:102B000001960E94150DCE0101960E94540E6FE3AE
:102B100076E0CE0101960E942E1141E050E070E077
:102B200060E0CE0101960E94150DCE0101960E9433
:102B3000540E6FE376E08BE196E00E94171160EA95
:102B400072E0CE0101960E94090FBE016F5F7F4FB8
:102B5000C8010E94050E7C01CE0101960E94540E10
:102B6000F7FC2AC063E972E0CE0101960E94090FCA
:102B700050E040E064E070E0CE0101960E94150D47
:102B8000CE0101960E94540E6FE376E0CE010196CD
:102B90000E942E1141E050E070E060E0CE0101960D
:102BA0000E94150DCE0101960E94540E6FE376E04F
:102BB00085E196E00E9417116CE872E0CE01019663
:102BC0000E94090FBE016F5F7F4FC8010E94050E72
:102BD0007C01CE0101960E94540EF7FC2AC06FE7DB
:102BE00072E0CE0101960E94090F50E040E064E0DF
:102BF00070E0CE0101960E94150DCE0101960E9453
:102C0000540E6FE376E0CE0101960E942E1141E052
:102C100050E070E060E0CE0101960E94150DCE01FB
:102C200001960E94540E6FE376E08FE096E00E94DA
:102C3000171168E772E0CE0101960E94090FBE01EC
:102C40006F5F7F4FC8010E94050E7C01CE01019687
:102C50000E94540EF7FC2AC06BE672E0CE0101968A
:102C60000E94090F50E040E064E070E0CE01019660
:102C70000E94150DCE0101960E94540E6FE376E07E
:102C8000CE0101960E942E1141E050E070E060E01C
:102C9000CE0101960E94150DCE0101960E94540EA0
:102CA0006FE376E089E096E00E94171165E672E036
:102CB000CE0101960E94090FBE016F5F7F4FC801D0
:102CC0000E94050E7C01CE0101960E94540EF7FC75
:102CD0002AC069E572E0CE0101960E94090F50E01A
:102CE00040E064E070E0CE0101960E94150DCE0137
:102CF00001960E94540E6FE376E0CE0101960E9489
:102D00002E1141E050E070E060E0CE0101960E949B
:102D1000150DCE0101960E94540E6FE376E083E01C
:102D200096E00E94171164E572E0CE0101960E94C0
:102D3000090FBE016F5F7F4FC8010E94050E7C0125
:102D4000CE0101960E94540EF7FC2AC069E472E09D
:102D5000CE0101960E94090F50E040E064E070E06F
:102D6000CE0101960E94150DCE0101960E94540ECF
:102D70006FE376E0CE0101960E942E1141E050E013
:102D800070E060E0CE0101960E94150DCE01019623
:102D90000E94540E6FE376E08DEF95E00E941711CC
:102DA00064E472E0CE0101960E94090FBE016F5FDC
:102DB0007F4FC8010E94050E7C01CE0101960E9442
:102DC000540EF7FC2AC069E372E0CE0101960E941E
:102DD000090F50E040E064E070E0CE0101960E94EF
:102DE000150DCE0101960E94540E6FE376E0CE01E0
:102DF00001960E942E1141E050E070E060E0CE01AB
:102E000001960E94150DCE0101960E94540E6FE3AB
:102E100076E087EF95E00E94171164E372E0CE013F
:102E200001960E94090FBE016F5F7F4FC8010E948B
:102E3000050E7C01CE0101960E94540EF7FC2AC0BB
:102E400069E272E0CE0101960E94090F50E040E075
:102E500064E070E0CE0101960E94150DCE0101964E
:102E60000E94540E6FE376E0CE0101960E942E116F
:102E700041E050E070E060E0CE0101960E94150D47
:102E8000CE0101960E94540E6FE376E081EF95E04B
:102E90000E94171162E272E0CE0101960E94090FB2
:102EA000BE016F5F7F4FC8010E94050E7C01CE01FD
:102EB00001960E94540EF7FC2AC065E172E0CE0133
:102EC00001960E94090F50E040E064E070E0CE01FE
:102ED00001960E94150DCE0101960E94540E6FE3DB
:102EE00076E0CE0101960E942E1141E050E070E0A4
:102EF00060E0CE0101960E94150DCE0101960E9460
:102F0000540E6FE376E08BEE95E00E9417116CE0B3
:102F100072E0CE0101960E94090FBE016F5F7F4FE4
:102F2000C8010E94050E7C01CE0101960E94540E3C
:102F3000F7FC2AC060E072E0CE0101960E94090F02
:102F400050E040E064E070E0CE0101960E94150D73
:102F5000CE0101960E94540E6FE376E0CE010196F9
:102F60000E942E1141E050E070E060E0CE01019639
:102F70000E94150DCE0101960E94540E6FE376E07B
:102F800085EE95E00E94171167EF71E0CE01019682
:102F90000E94090FBE016F5F7F4FC8010E94050E9E
:102FA0008C01CE0101960E94540E17FD2AC06BEED3
:102FB00071E0CE0101960E94090F50E040E064E00C
:102FC00070E0CE0101960E94150DCE0101960E947F
:102FD000540E6FE376E0CE0101960E942E1141E07F
:102FE00050E070E060E0CE0101960E94150DCE0128
:102FF00001960E94540E6FE376E08FED95E00E94FB
:1030000017112C960FB6F894DEBF0FBECDBFDF911F
:10301000CF911F910F91FF90EF90089510920004AF
:103020001092FF0392CCCF93DF93CDB7DEB72897F2
:103030000FB6F894DEBF0FBECDBF65E372E08FE33D
:1030400096E00E94B10F9091D7048091D804981710
:10305000F9F086E795E00E94D6071A8219821C8251
:103060001B821E821D828F831886BE01695F7F4F7F
:10307000CE0101960E94B10FBE016F5F7F4F8FE3BB
:1030800096E00E94DD0ECE0101960E94540EDBCF29
:103090006FE376E0CE0101960E942E1141E050E0F0
:1030A00064E070E0CE0101960E94150DCE010196FC
:1030B0000E94540E8CE291E00E94D3056FE376E00B
:1030C000CE0101960E942E11CE0101960E9462143B
:1030D000CE0101960E94540E28960FB6F894DEBFDA
:1030E0000FBECDBFDF91CF91089585ED8093BC00D9
:1030F0008091AB049091AC04A091AD04B091AE046A
:103100000796A11DB11D23E0B695A79597958795C4
:103110002A95D1F72091BC0024FD03C01092A90488
:1031200008954091AB045091AC046091AD0470914E
:10313000AE04452B462B472B69F30097A105B1053B
:1031400041F025E12A95F1F700000197A109B109A5
:10315000E1CF8091AA040C94C106CF92DF92EF9246
:10316000FF920F931F93CF93DF93CDB7DEB7A8974E
:103170000FB6F894DEBF0FBECDBF61E080910001B5
:103180000E94F5040E94AA06F090020186E090E0F9
:103190000E94452F8C01FC01F08286E795E0928326
:1031A0008183138280E290E0958384830E94AA0643
:1031B000FF24F394F801F382C8010E94640A882373
:1031C00071F11BA21CA21DA21EA21D8B0C8B1F8ABB
:1031D0001E8AFD8E85E090E09B8F8A8FFE8E42E0F6
:1031E000E42EEC8E40E050E160E070E0CE014496C9
:1031F0000E94CD09188A198A1A8A1B8A1A830983A0
:103200001C821B82FA8618861F82FB86E9864FE99C
:1032100059E360E070E0CE0101960E94CD0968EEAE
:1032200073E080E090E00E94A0051BA21CA21DA2FA
:103230001EA21D8B0C8B1F8A1E8AFF24F394FD8E09
:1032400085E0C82ED12CDB8ECA8EFE8E92E0E92E50
:10325000EC8E40E050E260E070E0CE0144960E94C7
:10326000CD09188A198A1A8A1B8A1A8309831C8233
:103270001B82FA8618861F82FB86E9864FE951E099
:1032800060E070E0CE0101960E94CD09188A198A8B
:103290001A8A1B8A1A8309831C821B82FA8682E09F
:1032A00090E098878F83FB86E986BE016C5E7F4F36
:1032B000CE0101960E94390B6C897D8923E07695B9
:1032C00067952A95E1F7660F771F660F771F072E20
:1032D000000C880B990B0E94E22C2FE632E143E8A8
:1032E0005AE30E94412D6093790470937A0480938D
:1032F0007B0490937C041BA21CA21DA21EA21D8B0A
:103300000C8B1F8A1E8AFD8EDB8ECA8EFE8EEC8E83
:1033100040E050E260E070E0CE0144960E94CD09AA
:10332000188A198A1A8A1B8A1A8309831C821B82AB
:10333000FA8684E090E098878F83FB86E986BE0159
:10334000695D7F4FCE0101960E94390B6FA178A570
:10335000072E000C880B990B0E94E22C20E030E035
:1033600040EA51E40E94992E6093FB037093FC03A2
:103370008093FD039093FE030E947F0660E080919E
:1033800000010E94F5044091790450917A04609103
:103390007B0470917C04CE0101960E94BB0FBE019C
:1033A0006F5F7F4F83E396E00E94090ECE01019686
:1033B0000E94540E4091FB035091FC036091FD0369
:1033C0007091FE03CE0101960E94BB0FBE016F5F9C
:1033D0007F4F8DE296E00E94090ECE0101960E9479
:1033E000540E67E771E0CE0101960E94090F50E08C
:1033F00040E062E070E0CE0101960E94150DCE0122
:1034000001960E94540E63E376E0CE0101960E947D
:103410002E1150E040E070E060E0CE0101960E9485
:10342000150DCE0101960E94540E6BE671E0CE019F
:1034300001960E94090F50E040E070E060E0CE018C
:1034400001960E94150DCE0101960E94540E6DE268
:1034500076E0CE0101960E942E1141E050E070E02E
:1034600060E0CE0101960E94150DCE0101960E94EA
:10347000540EC801A8960FB6F894DEBF0FBECDBF9C
:10348000DF91CF911F910F91FF90EF90DF90CF9040
:103490000C94E12FCF92DF92EF92FF920F931F9344
:1034A000CF93DF93CDB7DEB762970FB6F894DEBF48
:1034B0000FBECDBF6B017C018CEB92E00E94D30567
:1034C00069E276E0CE0101960E94090F41E050E0EA
:1034D00062E070E0CE0101960E94150DCE010196CA
:1034E0000E94540E6DE076E0CE0101960E94090F15
:1034F00041E050E062E070E0CE0101960E94150DBF
:10350000CE0101960E94540E60E08DE00E94F50409
:103510000E94120F6CEF75E0CE0101960E94090F18
:1035200041E050E062E070E0CE0101960E94150D8E
:10353000CE0101960E94540E64E670E080E090E0B7
:103540000E94A005109282041092810400918104CF
:103550001091820480917F049091800408171907CC
:10356000E0F480917E04882389F030E020E050E090
:1035700040E066E070E08DE794E00E940A060F5F8D
:103580001F4F1093820400938104E0CF68EE73E034
:1035900080E090E00E94A005F2CF81E090E090935F
:1035A000D5018093D40164EC75E0CE0101960E94B0
:1035B000090F41E050E062E070E0CE0101960E9408
:1035C000150DCE0101960E94540E0E94690F68EEFF
:1035D00073E080E090E00E94A0050E94AD180E9478
:1035E000120FA70196016091790470917A0480917D
:1035F0007B0490917C040E94DB2C87FF5DC062EA13
:1036000075E0CE0101960E94090F50E040E062E0B3
:1036100070E0CE0101960E94150DCE0101960E9428
:10362000540EB701A601CE010D960E94BB0FBE013C
:10363000635F7F4FCE0107960E942E1141E050E05C
:1036400068E372E0CE0107960E94B10E811104C0BA
:10365000CE0107960E94420EBE01695F7F4FCE01E8
:1036600001960E942E1141E050E070E060E0CE0132
:1036700001960E94150DCE0101960E94540ECE01B6
:1036800007960E94540ECE010D960E94540E66E6D7
:1036900076E686E690E40E944A1A62960FB6F8949F
:1036A000DEBF0FBECDBFDF91CF911F910F91FF9075
:1036B000EF90DF90CF90089562E975E0CE0101961A
:1036C0000E94090F41E050E062E070E0CE010196F7
:1036D0000E94150DCE0101960E94540E0E94AA066A
:1036E00080EE8093BA0088EE92E190937604809306
:1036F000750483E198E1909378048093770482E0E5
:1037000090E09093D5018093D4010E94690F80E0EE
:10371000C4CF8F929F92AF92BF92CF92DF92EF92DF
:10372000FF920F931F93CF93DF937C016B015A019C
:10373000C22FFA0184819581892B29F46AE372E012
:10374000CA010E94B10F0C2F10E0F5018481958110
:10375000912C812C0817190708F040C06EE372E025
:1037600089ED94E00E94F00CF5014481558170E0F0
:1037700060E02AE089ED94E00E94750D64E572E056
:1037800089ED94E00E94F00C4C2F50E070E060E076
:103790002AE089ED94E00E94750D89ED94E00E9485
:1037A000FF0CCD3030F066E572E089ED94E00E94C8
:1037B000C10DF501C481D581209749F510926E03A2
:1037C000F701EC0DFD1DAEE6B3E0CD018E56934042
:1037D0008017910764F58D918193F7CFF50184816E
:1037E0009581801B910B8816990658F441E050E0B2
:1037F00066E372E0C5010E94B10EFFEF8F1A9F0AC7
:10380000EDCFB50189ED94E00E94030DCACF0C17EE
:103810001D0708F4E801F50160817181AE018EE6B3
:1038200093E00E944831C259DC4F1882C9CFDF9122
:10383000CF911F910F91FF90EF90DF90CF90BF90AD
:10384000AF909F908F9008951F920F920FB60F9296
:1038500011242F933F934F935F936F937F938F9395
:103860009F93AF93BF93EF93FF9389ED94E00E94F2
:103870006604FF91EF91BF91AF919F918F917F91DE
:103880006F915F914F913F912F910F900FBE0F90CD
:103890001F9018951F920F920FB60F9211242F931D
:1038A0008F939F93EF93FF93E091E904F091EA04E3
:1038B0008081E091EF04F091F00482FD1BC09081C3
:1038C0008091F2048F5F8F732091F304821741F08F
:1038D000E091F204F0E0E752FB4F958F8093F20401
:1038E000FF91EF919F918F912F910F900FBE0F90AD
:1038F0001F9018958081F4CF1F920F920FB60F92F0
:1039000011242F933F938F939F93AF93BF938091F5
:10391000670490916804A0916904B0916A043091A1
:10392000660426E0230F2D3758F50296A11DB11D20
:10393000209366048093670490936804A0936904BD
:10394000B0936A0480916B0490916C04A0916D0413
:10395000B0916E040196A11DB11D80936B049093EC
:103960006C04A0936D04B0936E04BF91AF919F91CE
:103970008F913F912F910F900FBE0F901F90189530
:1039800029E8230F0396A11DB11DD2CF1F920F92DC
:103990000FB60F9211248F930FB6F894A8958091CB
:1039A0006000886180936000109260000FBE8F916C
:1039B0000F900FBE0F901F9018951F920F920FB689
:1039C0000F9211242F933F934F935F936F937F93A5
:1039D0008F939F93AF93BF93EF93FF938091B90021
:1039E000887F803609F44AC0F0F5883209F4A7C010
:1039F00018F5803109F49BC0B8F4882309F4F9C0A4
:103A0000883009F494C0FF91EF91BF91AF919F91DD
:103A10008F917F916F915F914F913F912F910F9077
:103A20000FBE0F901F901895883109F488C080321E
:103A300051F78093A70414C0803409F49DC040F46A
:103A40008033B9F38833F9F68093A70485ECB0C0CE
:103A5000803509F485C0883509F496C0883499F614
:103A60000E947518D0CF883909F48CC038F5883792
:103A700029F050F4883611F0803729F683E08093DE
:103A8000A9041092650457C0883809F47BC08039B6
:103A900019F0803809F0B7CF80916504803208F0C2
:103AA00071C0E091650481E08E0F80936504809180
:103AB000BB00F0E0EB5BFB4F80833DC0803B39F007
:103AC000E0F4803A09F479C0883A09F09CCF84E0A8
:103AD0008093A9041092440410924304E091D3040B
:103AE000F091D40409958091430481110FC081E0C5
:103AF000809343041092230409C0803C09F4A6CFAC
:103B0000883C09F4A3CF883B09F07DCFE0914404C1
:103B100081E08E0F80934404F0E0ED5DFB4F8081E7
:103B20008093BB00909144048091430429C080910C
:103B300084048093BB0085EC8093BC0064CF90919B
:103B4000A6048091A504981758F5E091A60481E099
:103B50008E0F8093A604F0E0EB57FB4F8081E9CFF6
:103B6000E091A60481E08E0F8093A6048091BB00B3
:103B7000F0E0EB57FB4F80839091A6048091A50461
:103B80009817C8F285E8D8CFE091A60481E08E0F9F
:103B90008093A6048091BB00F0E0EB57FB4F80833D
:103BA0008091A80481115CCF81E08093830484EA32
:103BB0008093BC001092A90426CF85EC8093BC00B2
:103BC0001092A90480916504803230F4E09165047C
:103BD000F0E0EB5BFB4F10826091650470E0E091D8
:103BE000D104F091D20485E494E009951092650423
:103BF0000ACF1092A70434CF1F920F920FB60F92E4
:103C000011242F933F934F935F936F937F938F93E1
:103C10009F93AF93BF93EF93FF93E091B205F09121
:103C2000B305309749F0A685B7858585968D91FFB8
:103C300014C09C918923A1F4FF91EF91BF91AF91A2
:103C40009F918F917F916F915F914F913F912F91B4
:103C50000F900FBE0F901F9018959C91892361F7CC
:103C6000A389B4899C918589809589238C938689C1
:103C700097890197F1F7608D718DA685B785558578
:103C800038E020E0CB010197F1F7822F90E0959585
:103C90008795282F4C91452309F02068315091F7E2
:103CA000868D81FD20958091700490E001968F773C
:103CB000992730916F04381799F0A0917004B0E003
:103CC000A558BC4F2C9380937004828D938D0197DF
:103CD000F1F7A389B4898C919589892B8C93ACCF0A
:103CE000868D8160868FF1CF8CEA95E00E94540E1C
:103CF00086EA95E00E94540E84E995E00E94540EF5
:103D00008EE895E00E94540E88E895E00E94540EDB
:103D100082E895E00E94540E85E292E09093C105FE
:103D20008093C0058091B2059091B305805C954069
:103D300071F4E091D305F091D40590818091D5057F
:103D40008095892380831092B3051092B2058AEB87
:103D500095E00E94540E84EB95E00E94540E8FED86
:103D600095E00E94540E85EE95E00E94540E8BEE75
:103D700095E00E94540E81EF95E00E94540E87EF6B
:103D800095E00E94540E8DEF95E00E94540E83E062
:103D900096E00E94540E89E096E00E94540E8FE057
:103DA00096E00E94540E85E196E00E94540E8BE14D
:103DB00096E00E94540E81E296E00E94540E87E243
:103DC00096E00E94540E8DE296E00E94540E83E32A
:103DD00096E00E94540E89E396E00E94540E8FE311
:103DE00096E00E94540E85E496E00C94540ECF9217
:103DF000DF92EF92FF921092DC041092DB0498EEB7
:103E0000C92E93E0D92EE12CF12CC092DD04D09282
:103E1000DE04E092DF04F092E00481E092E090930F
:103E2000DA048093D90485EC90E09093E6048093C3
:103E3000E50484EC90E09093E8048093E70480EC40
:103E400090E09093EA048093E90481EC90E09093F1
:103E5000EC048093EB0482EC90E09093EE0480936A
:103E6000ED0486EC90E09093F0048093EF041092C0
:103E7000F2041092F3041092F4041092F5041092DC
:103E8000790510927805C0927A05D0927B05E09270
:103E90007C05F0927D0583E192E090937705809315
:103EA000760565E372E085E496E00E949F1265E383
:103EB00072E08FE396E00E949F1265E372E089E36F
:103EC00096E00E949F1265E372E083E396E00E9411
:103ED0009F1265E372E08DE296E00E949F1265E317
:103EE00072E087E296E00E949F1265E372E081E251
:103EF00096E00E949F1265E372E08BE196E00E94DB
:103F00009F1265E372E085E196E00E949F1265E3EF
:103F100072E08FE096E00E949F1265E372E089E014
:103F200096E00E949F1265E372E083E096E00E94B3
:103F30009F1265E372E08DEF95E00E949F1265E3AA
:103F400072E087EF95E00E949F1265E372E081EFD7
:103F500095E00E949F1265E372E08BEE95E00E946F
:103F60009F1265E372E085EE95E00E949F1265E383
:103F700072E08FED95E00E949F1265E372E084EBA2
:103F800095E00E949F1265E372E08AEB95E00E9443
:103F90009F121092C3051092C205C092C405D09220
:103FA000C505E092C605F092C70585E292E09093C0
:103FB000C1058093C0051092D7051092D6051092C6
:103FC000D9051092D8051092DB051092DA051092EF
:103FD000DD051092DC056091DE056E7F6D7F6093DC
:103FE000DE056695617081E0682789E00E94F5042E
:103FF00061E089E00E944105EAE7F6E0E491E093A0
:10400000D005E6E6F6E0E491F0E0EE0FFF1FED5A92
:10401000F94F859194919093D2058093D10560E0FA
:1040200088E00E9441058091DE0581FD04C061E0C9
:1040300088E00E94F50488E08093CC05E9E7F6E08B
:10404000E491E093CD05E5E6F6E0E491F0E0EE0FD3
:10405000FF1FE75BF94F859194919093CF05809373
:10406000CE0565E372E082E895E00E949F1265E369
:1040700072E088E895E00E949F1265E372E08EE8A6
:1040800095E00E949F1265E372E084E995E00E944A
:104090009F1210929F051092A1051092A0051092F8
:1040A000A3051092A2051092A5051092A4056FE732
:1040B00072E086EA95E00E949F1265E372E08CEA66
:1040C00095E00E949F120E94FC292EE530E040E01E
:1040D00050E00E94FF2D605E7F4F8F4F9F4F609397
:1040E000F201FF90EF90DF90CF900895CF93DF9390
:1040F000CDB7DEB76E970FB6F894DEBF0FBECDBF5B
:10410000789484B5826084BD84B5816084BD85B5B2
:10411000826085BD85B5816085BD80916E008160BE
:1041200080936E0010928100809181008260809364
:104130008100809181008160809381008091800066
:104140008160809380008091B10084608093B10091
:104150008091B00081608093B00080917A0084608B
:1041600080937A0080917A00826080937A008091B7
:104170007A008E7F80937A0080917A0080688093A5
:104180007A001092C100E091E904F091EA0482E023
:104190008083E091E504F091E6041082E091E70469
:1041A000F091E80487E680831092F104E091ED0439
:1041B000F091EE0486E08083E091EB04F091EC0452
:1041C000808180618083E091EB04F091EC04808138
:1041D00088608083E091EB04F091EC04808180683A
:1041E0008083E091EB04F091EC0480818F7D8083EB
:1041F0001092DB051092DA051092D9051092D805BD
:104200001092D7051092D6058DEC90E09093DD05C5
:104210008093DC059091CC05963108F047C025E5E8
:1042200030E03093D7052093D6052BEC30E0309367
:10423000D9052093D80520E930E03093DB052093A1
:10424000DA052091680084E0983048F031E09E3033
:1042500008F430E081E001C0880F3A95EAF7822B3C
:10426000809368002DE630E0983050F02BE630E087
:104270009E3030F02CE630E0963110F030E020E057
:104280003093D4052093D305292F30E0983008F0DF
:10429000BBC781E001C0880F9A95EAF78093D505E6
:1042A0008091DC059091DD050197F1F78091DA05A9
:1042B0009091DB05892B49F1E091B205F091B305AE
:1042C00085E0E03CF80709F1309739F0A389B4891B
:1042D0009C918589809589238C938091DE058E7FC2
:1042E0008093DE051092700410926F0480EC95E0CC
:1042F0009093B3058093B205E091D305F091D40576
:1043000080819091D505892B808311E010937104F1
:1043100045E0E42EF12CF0929B05E0929A0561E0D5
:1043200085E00E94410586E090E09093D70180935C
:10433000D60184E090E0909301018093000161E058
:1043400086E00E94410561E084E00E9441051093EF
:104350007204F0928004E0927F0465E373E0CE0182
:1043600001960E94090F50E040E062E070E0CE014B
:1043700001960E94150DCE0101960E94540E609187
:104380007F0470918004CE0101960E94F10F50E0ED
:1043900040E070E060E0CE0101960E94150DCE0174
:1043A00001960E94540E6FE273E0CE0101960E94C6
:1043B000090F41E050E070E060E0CE0101960E94FC
:1043C000150DCE0101960E94540E10920301109219
:1043D000040110920501109206016EE473E0CE0113
:1043E00001960E94090F50E040E062E070E0CE01CB
:1043F00001960E94150DCE0101960E94540E409127
:104400000301509104016091050170910601CE01F4
:1044100001960E94BB0F50E040E070E060E0CE01EA
:1044200001960E94150DCE0101960E94540E6AE479
:1044300073E0CE0101960E94090F41E050E070E068
:1044400060E0CE0101960E94150DCE0101960E94FA
:10445000540E67E673E0CE0101960E94090F41E019
:1044600050E062E070E0CE0101960E94150DCE0191
:1044700001960E94540E10937E0480E48093020102
:104480006BE773E0CE0101960E94090F50E040E017
:1044900062E070E0CE0101960E94150DCE010196FA
:1044A0000E94540E40E160910201CE0101960E94EB
:1044B000EA1041E050E070E060E0CE0101960E9419
:1044C000150DCE0101960E94540E66EA75E0CE01EC
:1044D00001960E942E112CE0AE014F5F5F4F6EE0FF
:1044E00070E088ED91E00E94891BCE0101960E9448
:1044F000540E66EA75E0CE0101960E942E112CE062
:10450000AE014F5F5F4F65E170E087E091E00E9490
:10451000891BCE0101960E94540E6AE973E089ED71
:1045200094E00E94C40389ED94E00E94FF0C609126
:1045300003017091040180910501909106010E9490
:104540004A1A54ED652E51E0752E6CE3C62ED12C1F
:1045500028EE822E23E0922E30E0A32E30E0B32E00
:104560008091D4019091D5018130910509F0B8C6B0
:10457000809174048F5F809374040E94AD180E9430
:10458000120F0E941D100E94DF118091740481336C
:1045900008F4F7C16CE872E089ED94E00E94C10D67
:1045A000D092A505C092A40563E275E0CE01019604
:1045B0000E94090F60E0CE0101960E942F12CE01E9
:1045C00001960E94540E62E175E0CE0101960E94B0
:1045D000090F50E040E062E070E0CE0101960E94D9
:1045E0004B0DCE0101960E94540E6091A40570916E
:1045F000A505CE0101960E94F10F50E040E070E069
:1046000060E0CE0101960E944B0DCE0101960E9402
:10461000540E6EEF74E0CE0101960E94090F41E046
:1046200050E070E060E0CE0101960E944B0DCE019B
:1046300001960E94540E8091A4059091A505889D35
:10464000B001899D700D989D700D112490E080E05F
:104650000E94A00563EF74E0CE0101960E94090F4D
:10466000BE016F5F7F4F80EC95E00E94030DCE018D
:1046700001960E94540E64E670E080E090E00E9493
:10468000A005CE0101960E943711BE016F5F7F4FDA
:1046900084EB95E00E94090ECE0101960E94540E13
:1046A00064EE74E0CE0101960E94090FBE016F5FB7
:1046B0007F4F84EB95E00E94050E8C01CE010196A0
:1046C0000E94540E101611060CF0ABC564EB75E099
:1046D000CE0101960E942E1141E050E062E070E0B0
:1046E000CE0101960E944B0DCE0101960E94540E00
:1046F00060EA72E0CE0107960E949F1264EB75E0BB
:10470000CE0101960E942E1122E0AE01495F5F4F5B
:10471000BE016F5F7F4FCE010D960E941214BE0145
:10472000635F7F4F8EE895E00E94090ECE010D96E3
:104730000E94540ECE0101960E94540ECE0107969F
:104740000E94540E20919205309193052550310915
:1047500050E040E06EE875E0CE0101960E94C6137D
:10476000BE016F5F7F4F8EE895E00E94090ECE017B
:1047700001960E94540E60EA72E0CE0107960E94F4
:104780009F1264EB75E0CE0101960E942E1123E08A
:10479000AE01495F5F4FBE016F5F7F4FCE010D9647
:1047A0000E941214BE01635F7F4F82E895E00E9471
:1047B000090ECE010D960E94540ECE0101960E9464
:1047C000540ECE0107960E94540E60EA72E0CE01AC
:1047D00007960E949F1264EB75E0CE0101960E943D
:1047E0002E1124E0AE01495F5F4FBE016F5F7F4F26
:1047F000CE010D960E941214BE01635F7F4F88E8C0
:1048000095E00E94090ECE010D960E94540ECE0135
:1048100001960E94540ECE0107960E94540E67ED39
:1048200074E0CE0101960E94090F50E040E062E082
:1048300070E0CE0101960E944B0DCE0101960E94C0
:10484000540E6EE875E0CE0101960E942E1141E0F3
:1048500050E070E060E0CE0101960E944B0DCE0169
:1048600001960E94540E6AEC74E0CE0101960E94FB
:10487000090F50E040E062E070E0CE0101960E9436
:104880004B0DCE0101960E94540E62E875E0CE01F8
:1048900001960E942E1141E050E070E060E0CE01F0
:1048A00001960E944B0DCE0101960E94540E6CEBB6
:1048B00074E0CE0101960E94090F50E040E062E0F2
:1048C00070E0CE0101960E944B0DCE0101960E9430
:1048D000540E68E875E0CE0101960E942E1141E069
:1048E00050E070E060E0CE0101960E944B0DCE01D9
:1048F00001960E94540E61EA74E0CE0101960E9476
:10490000090F60E0CE0101960E942F12CE010196A0
:104910000E94540E69E974E0CE0101960E94090FCD
:1049200041E050E062E070E0CE0101960E944B0D44
:10493000CE0101960E94540E62EA72E0CE01019609
:104940000E949F12409192055091930560918E05AF
:1049500070918F05CE0101960E94B10E811104C0A5
:10496000CE0101960E94420EBE016F5F7F4F89ED1E
:1049700094E00E94030DCE0101960E94540E109205
:1049800074040E9484100E941D100E94DF1163E3D2
:1049900076E0CE0101960E942E1124E0AE014F5F19
:1049A0005F4F68E270E087E091E00E94891BCE01D2
:1049B00001960E94540E6DE276E0CE0101960E94AF
:1049C0002E1126E0AE014F5F5F4F63E370E087E09A
:1049D00091E00E94891BCE0101960E94540E67E26D
:1049E00076E0CE0101960E942E1125E0AE014F5FC8
:1049F0005F4F6DE370E087E091E00E94891BCE017C
:104A000001960E94540E61E276E0CE0101960E946A
:104A10002E1123E0AE014F5F5F4F66E470E087E048
:104A200091E00E94891BCE0101960E94540E6BE119
:104A300076E0CE0101960E942E1125E0AE014F5F77
:104A40005F4F6FE470E087E091E00E94891BCE0128
:104A500001960E94540E65E176E0CE0101960E9417
:104A60002E1125E0AE014F5F5F4F6BE570E087E0F0
:104A700091E00E94891BCE0101960E94540E6FE0C6
:104A800076E0CE0101960E942E1126E0AE014F5F26
:104A90005F4F67E670E087E091E00E94891BCE01DE
:104AA00001960E94540E69E076E0CE0101960E94C4
:104AB0002E1124E0AE014F5F5F4F64E770E087E0A6
:104AC00091E00E94891BCE0101960E94540E63E082
:104AD00076E0CE0101960E942E1125E0AE014F5FD7
:104AE0005F4F6EE770E087E091E00E94891BCE0186
:104AF00001960E94540E6DEF75E0CE0101960E9462
:104B00002E1125E0AE014F5F5F4F68E870E087E04F
:104B100091E00E94891BCE0101960E94540E67EF1E
:104B200075E0CE0101960E942E1126E0AE014F5F86
:104B30005F4F62E970E087E091E00E94891BCE013F
:104B400001960E94540E61EF75E0CE0101960E941D
:104B50002E1127E0AE014F5F5F4F6DE970E087E0F7
:104B600091E00E94891BCE0101960E94540E62E8DA
:104B700075E0CE0101960E942E1129E0AE014F5F33
:104B80005F4F69EA70E087E091E00E94891BCE01E7
:104B900001960E94540E68E875E0CE0101960E94CD
:104BA0002E112AE0AE014F5F5F4F67EB70E087E0A8
:104BB00091E00E94891BCE0101960E94540E6BEE7B
:104BC00075E0CE0101960E942E1126E0AE014F5FE6
:104BD0005F4F66EC70E087E091E00E94891BCE0198
:104BE00001960E94540E68E875E089ED94E00E94F9
:104BF000030D6BEE75E089ED94E00E94030D97E0E4
:104C0000E92E91E0F92E8701F80161918F0189ED7C
:104C100094E00E94880460167106B1F789ED94E073
:104C20000E94FF0C89ED94E00E94D50469E874E0CD
:104C3000CE0101960E94090F61E0CE0101960E940B
:104C40002F12CE0101960E94540E64EF71E080E0B5
:104C500090E00E94A00565E372E0CE0149960E94B3
:104C60009F1265E372E0CE0143960E949F1265E3B6
:104C700072E0CE010D960E949F1265E372E0CE01B4
:104C800007960E949F1267EB72E080EC95E00E940D
:104C9000C10D68EE73E080E090E00E94A005CE01B7
:104CA00001960E943711BE016F5F7F4F84EB95E044
:104CB0000E94090ECE0101960E94540E64EB75E02D
:104CC000CE0101960E942E1141E050E070E060E0BC
:104CD000CE0101960E944B0DCE0101960E94540E0A
:104CE0000AE010E08091B8059091B90508171907FE
:104CF00038F4E091B405F091B505309709F0A6C2FB
:104D000010927304E3E7F4E0808189831A8241E022
:104D100050E0BE016F5F7F4FCE0143960E94B10EFF
:104D20000F5F1F4F0F301105E9F68F89988D892B82
:104D300009F45BC00B891C896FEB72E0C8010E940B
:104D40003831892B09F085C265EC72E0CE010196FD
:104D50000E949F1241E050E070E060E0CE010196B9
:104D60000E944B0DCE0101960E94540E66E274E043
:104D7000CE0101960E94090F61E0CE0101960E94CA
:104D80002F12CE0101960E94540E68EE73E080E06F
:104D900090E00E94A0056FE074E0CE0101960E94B1
:104DA000090F61E0CE0101960E942F12CE010196FB
:104DB0000E94540E60ED77E080E090E00E94A00534
:104DC00068E074E0CE0101960E94090F61E0CE0117
:104DD00001960E942F12CE0101960E94540E68EE99
:104DE00073E080E090E00E94A005CE0107960E944B
:104DF000540ECE010D960E94540EBE016D5E7F4F83
:104E0000CE0149960E94090ECE0143960E94540E8F
:104E100062E073E0CE0101960E949F124D8D5E8D7F
:104E2000698D7A8DCE0101960E94B10E811104C068
:104E3000CE0101960E94420EBE016F5F7F4FCE01F0
:104E400007960E942E1141E050E070E060E0CE0134
:104E500007960E944B0DCE0107960E94540ECE017C
:104E600001960E94540E6EE774E0CE0101960E94F6
:104E7000090F61E0CE0101960E942F12CE0101962A
:104E80000E94540E64EF71E080E090E00E94A00563
:104E900064E774E0CE0101960E94090F61E0CE0143
:104EA00001960E942F12CE0101960E94540E64EFCB
:104EB00071E080E090E00E94A00564EF71E080E086
:104EC00090E00E94A0056BE674E0CE0101960E947E
:104ED000090F61E0CE0101960E942F12CE010196CA
:104EE0000E94540E64EF71E080E090E00E94A00503
:104EF00062E674E0CE0101960E94090F61E0CE01E6
:104F000001960E942F12CE0101960E94540E6CED64
:104F100075E080E090E00E94A0056EE474E080EC13
:104F200095E00E94C40367E073E080EC95E00E9486
:104F3000F00C6AE474E080EC95E00E94C4032AE07F
:104F40004BE557E060E070E080EC95E00E94750D65
:104F500062E273E080EC95E00E94C10D60ED77E0C5
:104F600080E090E00E94A005CE0101960E943711DA
:104F7000BE016F5F7F4F84EB95E00E94090ECE016A
:104F800001960E94540E6DE374E0CE0101960E94DA
:104F9000090F50E040E062E070E0CE0101960E940F
:104FA0004B0DCE0101960E94540E64EB75E0CE01CC
:104FB00001960E942E1141E050E070E060E0CE01C9
:104FC00001960E944B0DCE0101960E94540E64EB97
:104FD00075E0CE0101960E942E11CE0101960E942D
:104FE000390F80939E05CE0101960E94540ECE018A
:104FF00049960E94540E60E177E280E090E00E94C2
:10500000A00564E273E0CE0101960E949F1261E068
:10501000CE0101960E942F12CE0101960E94540EDD
:105020006FE273E089ED94E00E94C10D08ED11E09C
:10503000512C8AE0482E852D642D0E940B2F911152
:1050400004C089ED94E00E94FF0CF80161918F018A
:10505000CE0101960E94B012CE0101960E94B503C6
:10506000CE0101960E94540E62E572E0CE010196D7
:105070000E949F12CE0101960E94B503CE010196B7
:105080000E94540E65E070E080E090E00E94A00570
:105090005394FBE15F12CFCF89ED94E00E94FF0CA7
:1050A00010E00AE0812F602F0E940B2F911104C0A5
:1050B00089ED94E00E94FF0CF70161917F01CE0120
:1050C00001960E94B012CE0101960E94B503CE0156
:1050D00001960E94540E62E572E0CE0101960E9494
:1050E0009F12CE0101960E94B503CE0101960E9447
:1050F000540E65E070E080E090E00E94A0051F5F24
:105100001D3C81F66AE180EC95E00E94A10A68EE00
:1051100073E080E090E00E94A005CE0101960E941D
:105120003711BE016F5F7F4F84EB95E00E94090E3F
:10513000CE0101960E94540E65EC73E0CE010196FB
:105140000E94090F50E040E062E070E0CE0101965D
:105150000E944B0DCE0101960E94540E64EB75E047
:10516000CE0101960E942E1141E050E070E060E017
:10517000CE0101960E944B0DCE0101960E94540E65
:1051800060E473E089ED94E00E94C10D60ED77E08A
:1051900080E090E00E94A00569EB73E0CE010196EB
:1051A0000E94090F61E0CE0101960E942F12CE01EC
:1051B00001960E94540E6EEA73E0CE0101960E94A1
:1051C000090F61E0CE0101960E942F1280939E0587
:1051D000CE0101960E94540E0E948410609103013A
:1051E0007091040180910501909106010E944A1A74
:1051F000A114B10409F4B4C90E945204882309F42B
:10520000A7C90E940000A4C99E3040F4285031096B
:1052100081E001C0880F2A95EAF740C82E50310975
:10522000F7CF6EEA74E0CE0101960E94090F50E0BC
:1052300040E062E070E0CE0101960E944B0DCE018D
:1052400001960E94540E64EB75E045CBE00FF11F10
:105250005BCD62EE72E0C8010E943831892B09F003
:10526000C4CD68EE72E0CE0101960E949F1241E02B
:1052700050E070E060E0CE0101960E944B0DCE013F
:1052800001960E94540E6EEE73E0CE0101960E94CC
:10529000090F61E0CE0101960E942F12CE01019606
:1052A0000E94540E68EE73E080E090E00E94A0053A
:1052B0006AED73E0CE0101960E94090F61E0CE0114
:1052C00001960E942F12CE0101960E94540E60EDAD
:1052D00077E080E090E00E94A00563ED73E072CD7E
:1052E000029761F469E473E089ED94E00E94C10DD6
:1052F00068E873E180E090E00E94A0058091D4010D
:105300009091D501019709F073CF6BE573E089EDBA
:1053100094E00E94C10D64EF71E080E090E00E9493
:10532000A00566CFEF920F931F93CF93DF93E80111
:1053300034E047FD34E1042E000C550B57FF03C049
:10534000519541955109E32E022F242FAE010E9461
:10535000942ACE01DF91CF911F910F91EF90089584
:105360008F929F92AF92BF92CF92DF92EF92FF9275
:10537000CF93DF93EC01688179818A819B816115EC
:1053800071058105910521F464E279ED8BE597E0E3
:105390002DE133EF41E050E00E94FF2D49015A0119
:1053A0009B01AC01A7EAB1E40E941E2E6B017C01B7
:1053B000ACEEB4EFA50194010E942C2EC60ED71EB0
:1053C000E81EF91EF7FE06C081E0C81AD108E10800
:1053D00080E8F80AC882D982EA82FB82C701B60156
:1053E0009F77DF91CF91FF90EF90DF90CF90BF90AC
:1053F000AF909F908F9008958F929F92AF92BF929F
:10540000CF92DF92EF92FF926091F3017091F401DD
:105410008091F5019091F601611571058105910565
:1054200021F464E279ED8BE597E02DE133EF41E083
:1054300050E00E94FF2D49015A019B01AC01A7EAEF
:10544000B1E40E941E2E6B017C01ACEEB4EFA5010D
:1054500094010E942C2EC60ED71EE81EF91EF7FEE0
:1054600006C081E0C81AD108E10880E8F80AC092B5
:10547000F301D092F401E092F501F092F601C70138
:10548000B6019F77FF90EF90DF90CF90BF90AF90E5
:105490009F908F9008956093F3017093F40180932F
:1054A000F5019093F6010895FB01DC0105900D9242
:1054B0000020E1F70895FC0105900020E9F78095B0
:1054C00090958E0F9F1F0895BB274A3031F4992382
:1054D00022F4BDE2909581959F4F0C947B2A453232
:1054E000510520F4423010F00C947A2AFB0110820E
:1054F000CB010895BB27FB015527AA27880F991FC9
:10550000AA1FA41710F0A41B83955051B9F7A05DF2
:10551000AA3308F0A95DA193009779F7B111B1936F
:105520001192CB010C94CB2CA9E0B0E0EAE9FAE2AD
:105530000C94372E6A01F22EB02E102FFBE3AF2E03
:10554000A01608F41BE31F5F012F27E0AE014F5F99
:105550005F4F0E94F32BBC018981982F9970913085
:1055600009F43FC09BE2E1FC04C09E2D9170E0FC79
:105570003AC05E2D5071E82FE87083FF46C084E08A
:10558000911101C083E0EF2DE81B8F1508F0E0E0DA
:10559000D6018E2F20E2552351F1992329F0D6010F
:1055A0009C93C60101966C0196012D5F3F4FE2FE70
:1055B00024C08EE4D6018C9391E411969C931197AC
:1055C00012968C93D9018E2F90E281111BC0E20FAD
:1055D000F32FF11D10828EEF9FEF2996ECE00C94D3
:1055E000532E9DE2C6CF90E2C4CF2D9381508111FE
:1055F000FCCFCE0ED11CE0E0D0CF8EE6D6018C934E
:1056000091E6DBCF9D938150E0CF482F447082FF1D
:105610003DC084E0911101C083E08F1510F4EF2D9F
:10562000E81BD6018E2F20E2552309F1992329F09A
:10563000D6019C93C60101966C0196012D5F3F4FE8
:10564000E2FE1BC089E4D6018C938EE411968C9304
:10565000119786E412968C93D9018E2F90E28823BD
:1056600009F4B5CF9D938150FACF2D9381508111CC
:10567000FCCFCE0ED11CE0E0D9CF89E6D6018C93C9
:105680008EE611968C93119786E6E4CF9B0177FF07
:1056900002C030E020E0A1E0B0E0911102C0B0E033
:1056A000A0E0F9013196AE0FBF1F8B2C912CBB20CF
:1056B00009F461C05401EFEFAE1ABE0AAA0DBB1D7A
:1056C000FA161B0619F014F04F2D4A1B511188C011
:1056D000E3FC59C07601A42FB0E2A1114FC0C40E63
:1056E000D11C992309F45BC040E0D6011196F60164
:1056F00090836D01552309F448C0012F060F9A814C
:10570000582F507184FF03C0913309F401501016D3
:105710000CF047C0093008F008E0EEE2FE2E5B0115
:10572000A01AB10885019194819491082F3F320706
:1057300029F4D601FC92F60131966F0162177307C6
:1057400094F1021713077CF5DB01A21BB30BAA240B
:10575000A394B12CAC0EBD1EAA0DBB1D11968C914D
:1057600021503109D601119628153905F4F0F601BA
:1057700080836D01DBCFB12CA12CA0CFF701B193B9
:105780007F01A150AACF9111B0CFD601942F50E341
:1057900002C05D9391509111FCCFC40ED11C40E02A
:1057A000ACCF01E0BACF80E3DBCF6217730731F4EF
:1057B000963388F4953311F4552369F0F60180830C
:1057C000FD01842F90E2811108C0A40FB11D1C922D
:1057D00090E080E002CF81E3F1CF91938150F3CF4D
:1057E000911183CF8ACF283008F027E03327DA01E0
:1057F000990F311D87FD916000966105710539F49F
:1058000032602E5F3D9330E32A95E1F708959F3F84
:1058100030F080387105610509F03C5F3C5F3D93D5
:10582000913008F08068911DDF93CF931F930F9301
:10583000FF92EF92192F987F9695E92F969596955E
:10584000E90FFF27EE53FF4F99273327EE24FF245C
:10585000A701E70105900894079428F4360FE71E86
:10586000F81E491F511D660F771F881F991F069448
:10587000A1F70590079428F4E70EF81E491F561F5C
:10588000C11D770F881F991F661F0694A1F7059009
:10589000079428F4F80E491F561FC71FD11D880F03
:1058A000991F661F771F0694A1F70590079420F4AF
:1058B000490F561FC71FD81F990F661F771F881FD4
:1058C0000694A9F784911095177041F0D695C79565
:1058D00057954795F794E7941A95C1F7E8E6F0E0F5
:1058E00068941590159135916591959105907FE299
:1058F0007395E118F10A430B560BC90BD009C0F799
:10590000E10CF11E431F561FC91FD01D7EF47033DA
:1059100011F48A95E6CFE894015030F0080F0AF4AC
:105920000027021708F4202F2395022F7A3328F03E
:1059300079E37D932A95E9F710C07D932A9589F63E
:10594000069497956795379517951794E118F10A7E
:10595000430B560BC90BD00998F023957E91739594
:105960007A3308F070E37C932013B8F77E9170616E
:105970007D9330F0839571E37D9370E32A95E1F791
:105980001124EF90FF900F911F91CF91DF919927F4
:1059900087FD90950895DC01FC01672F71917723B5
:1059A000E1F7329704C07C916D9370836291AE17DA
:1059B000BF07C8F308950E941D2D08F481E00895E3
:1059C000E89409C097FB3EF4909580957095619599
:1059D0007F4F8F4F9F4F9923A9F0F92F96E9BB274F
:1059E0009395F695879577956795B795F111F8CFCB
:1059F000FAF4BB0F11F460FF1BC06F5F7F4F8F4F36
:105A00009F4F16C0882311F096E911C0772321F02B
:105A10009EE8872F762F05C0662371F096E8862FC3
:105A200070E060E02AF09A95660F771F881FDAF71A
:105A3000880F9695879597F90895990F0008550F47
:105A4000AA0BE0E8FEEF16161706E807F907C0F004
:105A500012161306E407F50798F0621B730B840B0C
:105A6000950B39F40A2661F0232B242B252B21F4E6
:105A700008950A2609F4A140A6958FEF811D811D86
:105A800008950E94542D0C94C52D0E94B72D38F016
:105A90000E94BE2D20F0952311F00C94AE2D0C9495
:105AA000B42D11240C94F92D0E94D62D70F3959FDE
:105AB000C1F3950F50E0551F629FF001729FBB2705
:105AC000F00DB11D639FAA27F00DB11DAA1F649FA1
:105AD0006627B00DA11D661F829F2227B00DA11D54
